{
  "_format": "hh-sol-artifact-1",
  "contractName": "Product",
  "sourceName": "contracts/product.sol",
  "abi": [
    {
      "anonymous": false,
      "inputs": [
        {
          "indexed": false,
          "internalType": "uint256",
          "name": "",
          "type": "uint256"
        },
        {
          "indexed": false,
          "internalType": "string",
          "name": "",
          "type": "string"
        },
        {
          "indexed": false,
          "internalType": "uint256",
          "name": "",
          "type": "uint256"
        }
      ],
      "name": "FarmCreated",
      "type": "event"
    },
    {
      "inputs": [
        {
          "internalType": "uint256",
          "name": "_farm_id",
          "type": "uint256"
        },
        {
          "internalType": "string",
          "name": "_farmName",
          "type": "string"
        },
        {
          "internalType": "uint256",
          "name": "_phonenumber",
          "type": "uint256"
        }
      ],
      "name": "addFarm",
      "outputs": [
        {
          "internalType": "string",
          "name": "",
          "type": "string"
        }
      ],
      "stateMutability": "nonpayable",
      "type": "function"
    },
    {
      "inputs": [
        {
          "internalType": "uint256",
          "name": "_user_Id",
          "type": "uint256"
        },
        {
          "internalType": "string",
          "name": "_full_name",
          "type": "string"
        },
        {
          "internalType": "uint32",
          "name": "_country_code",
          "type": "uint32"
        },
        {
          "internalType": "uint256",
          "name": "timestamp",
          "type": "uint256"
        }
      ],
      "name": "addPerson",
      "outputs": [
        {
          "internalType": "string",
          "name": "",
          "type": "string"
        }
      ],
      "stateMutability": "nonpayable",
      "type": "function"
    },
    {
      "inputs": [
        {
          "internalType": "uint256",
          "name": "_product_id",
          "type": "uint256"
        },
        {
          "internalType": "string",
          "name": "_productName",
          "type": "string"
        },
        {
          "internalType": "uint256",
          "name": "_merchant_id",
          "type": "uint256"
        },
        {
          "internalType": "uint256",
          "name": "_timestamp",
          "type": "uint256"
        }
      ],
      "name": "addProduct",
      "outputs": [
        {
          "internalType": "string",
          "name": "",
          "type": "string"
        }
      ],
      "stateMutability": "nonpayable",
      "type": "function"
    },
    {
      "inputs": [],
      "name": "balanceof",
      "outputs": [
        {
          "internalType": "uint256",
          "name": "",
          "type": "uint256"
        }
      ],
      "stateMutability": "view",
      "type": "function"
    },
    {
      "inputs": [],
      "name": "farm_id",
      "outputs": [
        {
          "internalType": "uint256",
          "name": "",
          "type": "uint256"
        }
      ],
      "stateMutability": "view",
      "type": "function"
    },
    {
      "inputs": [
        {
          "internalType": "uint256",
          "name": "",
          "type": "uint256"
        }
      ],
      "name": "farms",
      "outputs": [
        {
          "internalType": "uint256",
          "name": "farm_id",
          "type": "uint256"
        },
        {
          "internalType": "string",
          "name": "farmName",
          "type": "string"
        },
        {
          "internalType": "uint256",
          "name": "phonenumber",
          "type": "uint256"
        }
      ],
      "stateMutability": "view",
      "type": "function"
    },
    {
      "inputs": [
        {
          "internalType": "uint256",
          "name": "_farm_id",
          "type": "uint256"
        }
      ],
      "name": "getFarm",
      "outputs": [
        {
          "internalType": "uint256",
          "name": "",
          "type": "uint256"
        },
        {
          "internalType": "string",
          "name": "",
          "type": "string"
        },
        {
          "internalType": "uint256",
          "name": "",
          "type": "uint256"
        }
      ],
      "stateMutability": "view",
      "type": "function"
    },
    {
      "inputs": [],
      "name": "pay",
      "outputs": [],
      "stateMutability": "payable",
      "type": "function"
    },
    {
      "inputs": [],
      "name": "product_id",
      "outputs": [
        {
          "internalType": "uint32",
          "name": "",
          "type": "uint32"
        }
      ],
      "stateMutability": "view",
      "type": "function"
    },
    {
      "inputs": [
        {
          "internalType": "uint32",
          "name": "",
          "type": "uint32"
        }
      ],
      "name": "products",
      "outputs": [
        {
          "internalType": "uint256",
          "name": "product_id",
          "type": "uint256"
        },
        {
          "internalType": "string",
          "name": "productName",
          "type": "string"
        },
        {
          "internalType": "uint256",
          "name": "merchant_id",
          "type": "uint256"
        },
        {
          "internalType": "uint256",
          "name": "timestamp",
          "type": "uint256"
        }
      ],
      "stateMutability": "view",
      "type": "function"
    },
    {
      "inputs": [
        {
          "internalType": "address payable",
          "name": "farmer",
          "type": "address"
        }
      ],
      "name": "sendingEther",
      "outputs": [],
      "stateMutability": "nonpayable",
      "type": "function"
    },
    {
      "inputs": [
        {
          "internalType": "uint256",
          "name": "",
          "type": "uint256"
        }
      ],
      "name": "users",
      "outputs": [
        {
          "internalType": "uint32",
          "name": "user_Id",
          "type": "uint32"
        },
        {
          "internalType": "string",
          "name": "full_name",
          "type": "string"
        },
        {
          "internalType": "uint32",
          "name": "country_code",
          "type": "uint32"
        },
        {
          "internalType": "uint256",
          "name": "timestamp",
          "type": "uint256"
        }
      ],
      "stateMutability": "view",
      "type": "function"
    }
  ],
  "bytecode": "0x60806040526000600360006101000a81548163ffffffff021916908363ffffffff16021790555034801561003257600080fd5b5060006002819055506113ef8061004a6000396000f3fe6080604052600436106100a75760003560e01c80637f41c4d4116100645780637f41c4d4146101dc578063a3b1835e14610219578063bf712fd614610244578063c27ed2a214610284578063c724afa3146102c1578063eab0a479146102ea576100a7565b80631b9265b8146100ac5780632980a5d3146100b6578063365b98b2146100e157806342f577221461012157806353fd88bf1461015e5780637da470ea1461019d575b600080fd5b6100b4610315565b005b3480156100c257600080fd5b506100cb61036d565b6040516100d89190610a2c565b60405180910390f35b3480156100ed57600080fd5b5061010860048036038101906101039190610a87565b610375565b6040516101189493929190610b63565b60405180910390f35b34801561012d57600080fd5b5061014860048036038101906101439190610ce4565b61044d565b6040516101559190610d53565b60405180910390f35b34801561016a57600080fd5b5061018560048036038101906101809190610a87565b610548565b60405161019493929190610d75565b60405180910390f35b3480156101a957600080fd5b506101c460048036038101906101bf9190610a87565b61062b565b6040516101d393929190610d75565b60405180910390f35b3480156101e857600080fd5b5061020360048036038101906101fe9190610ddf565b6106dd565b6040516102109190610d53565b60405180910390f35b34801561022557600080fd5b5061022e6107d5565b60405161023b9190610a2c565b60405180910390f35b34801561025057600080fd5b5061026b60048036038101906102669190610e62565b6107db565b60405161027b9493929190610e8f565b60405180910390f35b34801561029057600080fd5b506102ab60048036038101906102a69190610edb565b610893565b6040516102b89190610d53565b60405180910390f35b3480156102cd57600080fd5b506102e860048036038101906102e39190610fbc565b6109ab565b005b3480156102f657600080fd5b506102ff6109fd565b60405161030c9190610fe9565b60405180910390f35b34600560003373ffffffffffffffffffffffffffffffffffffffff1673ffffffffffffffffffffffffffffffffffffffff16815260200190815260200160002060008282546103649190611033565b92505081905550565b600047905090565b60006020528060005260406000206000915090508060000160009054906101000a900463ffffffff16908060010180546103ae90611096565b80601f01602080910402602001604051908101604052809291908181526020018280546103da90611096565b80156104275780601f106103fc57610100808354040283529160200191610427565b820191906000526020600020905b81548152906001019060200180831161040a57829003601f168201915b5050505050908060020160009054906101000a900463ffffffff16908060030154905084565b6060600060405180606001604052808663ffffffff16815260200185815260200184815250905080600160008781526020019081526020016000206000820151816000015560208201518160010190816104a79190611273565b50604082015181600201559050507f5ea306e9abfb48801e5410e243d237785d9b51c6bcb8e2be25378515189049e88585856040516104e893929190610d75565b60405180910390a16002600081548092919061050390611345565b91905055506040518060400160405280600881526020017f4e6577204661726d0000000000000000000000000000000000000000000000008152509150509392505050565b600060606000600160008581526020019081526020016000206000015460016000868152602001908152602001600020600101600160008781526020019081526020016000206002015481805461059e90611096565b80601f01602080910402602001604051908101604052809291908181526020018280546105ca90611096565b80156106175780601f106105ec57610100808354040283529160200191610617565b820191906000526020600020905b8154815290600101906020018083116105fa57829003601f168201915b505050505091509250925092509193909250565b600160205280600052604060002060009150905080600001549080600101805461065490611096565b80601f016020809104026020016040519081016040528092919081815260200182805461068090611096565b80156106cd5780601f106106a2576101008083540402835291602001916106cd565b820191906000526020600020905b8154815290600101906020018083116106b057829003601f168201915b5050505050908060020154905083565b6060600060405180608001604052808763ffffffff1681526020018681526020018563ffffffff1681526020018481525090508060008088815260200190815260200160002060008201518160000160006101000a81548163ffffffff021916908363ffffffff160217905550602082015181600101908161075f9190611273565b5060408201518160020160006101000a81548163ffffffff021916908363ffffffff160217905550606082015181600301559050506040518060400160405280600f81526020017f57656c636f6d65206e6577557365720000000000000000000000000000000000815250915050949350505050565b60025481565b600460205280600052604060002060009150905080600001549080600101805461080490611096565b80601f016020809104026020016040519081016040528092919081815260200182805461083090611096565b801561087d5780601f106108525761010080835404028352916020019161087d565b820191906000526020600020905b81548152906001019060200180831161086057829003601f168201915b5050505050908060020154908060030154905084565b6060600060405180608001604052808763ffffffff1681526020018681526020018581526020018481525090508060046000600360009054906101000a900463ffffffff1663ffffffff1663ffffffff1681526020019081526020016000206000820151816000015560208201518160010190816109119190611273565b5060408201518160020155606082015181600301559050506003600081819054906101000a900463ffffffff168092919061094b9061138d565b91906101000a81548163ffffffff021916908363ffffffff160217905550506040518060400160405280600b81526020017f4e65772050726f64756374000000000000000000000000000000000000000000815250915050949350505050565b8073ffffffffffffffffffffffffffffffffffffffff166108fc670de0b6b3a76400009081150290604051600060405180830381858888f193505050501580156109f9573d6000803e3d6000fd5b5050565b600360009054906101000a900463ffffffff1681565b6000819050919050565b610a2681610a13565b82525050565b6000602082019050610a416000830184610a1d565b92915050565b6000604051905090565b600080fd5b600080fd5b610a6481610a13565b8114610a6f57600080fd5b50565b600081359050610a8181610a5b565b92915050565b600060208284031215610a9d57610a9c610a51565b5b6000610aab84828501610a72565b91505092915050565b600063ffffffff82169050919050565b610acd81610ab4565b82525050565b600081519050919050565b600082825260208201905092915050565b60005b83811015610b0d578082015181840152602081019050610af2565b60008484015250505050565b6000601f19601f8301169050919050565b6000610b3582610ad3565b610b3f8185610ade565b9350610b4f818560208601610aef565b610b5881610b19565b840191505092915050565b6000608082019050610b786000830187610ac4565b8181036020830152610b8a8186610b2a565b9050610b996040830185610ac4565b610ba66060830184610a1d565b95945050505050565b600080fd5b600080fd5b7f4e487b7100000000000000000000000000000000000000000000000000000000600052604160045260246000fd5b610bf182610b19565b810181811067ffffffffffffffff82111715610c1057610c0f610bb9565b5b80604052505050565b6000610c23610a47565b9050610c2f8282610be8565b919050565b600067ffffffffffffffff821115610c4f57610c4e610bb9565b5b610c5882610b19565b9050602081019050919050565b82818337600083830152505050565b6000610c87610c8284610c34565b610c19565b905082815260208101848484011115610ca357610ca2610bb4565b5b610cae848285610c65565b509392505050565b600082601f830112610ccb57610cca610baf565b5b8135610cdb848260208601610c74565b91505092915050565b600080600060608486031215610cfd57610cfc610a51565b5b6000610d0b86828701610a72565b935050602084013567ffffffffffffffff811115610d2c57610d2b610a56565b5b610d3886828701610cb6565b9250506040610d4986828701610a72565b9150509250925092565b60006020820190508181036000830152610d6d8184610b2a565b905092915050565b6000606082019050610d8a6000830186610a1d565b8181036020830152610d9c8185610b2a565b9050610dab6040830184610a1d565b949350505050565b610dbc81610ab4565b8114610dc757600080fd5b50565b600081359050610dd981610db3565b92915050565b60008060008060808587031215610df957610df8610a51565b5b6000610e0787828801610a72565b945050602085013567ffffffffffffffff811115610e2857610e27610a56565b5b610e3487828801610cb6565b9350506040610e4587828801610dca565b9250506060610e5687828801610a72565b91505092959194509250565b600060208284031215610e7857610e77610a51565b5b6000610e8684828501610dca565b91505092915050565b6000608082019050610ea46000830187610a1d565b8181036020830152610eb68186610b2a565b9050610ec56040830185610a1d565b610ed26060830184610a1d565b95945050505050565b60008060008060808587031215610ef557610ef4610a51565b5b6000610f0387828801610a72565b945050602085013567ffffffffffffffff811115610f2457610f23610a56565b5b610f3087828801610cb6565b9350506040610f4187828801610a72565b9250506060610f5287828801610a72565b91505092959194509250565b600073ffffffffffffffffffffffffffffffffffffffff82169050919050565b6000610f8982610f5e565b9050919050565b610f9981610f7e565b8114610fa457600080fd5b50565b600081359050610fb681610f90565b92915050565b600060208284031215610fd257610fd1610a51565b5b6000610fe084828501610fa7565b91505092915050565b6000602082019050610ffe6000830184610ac4565b92915050565b7f4e487b7100000000000000000000000000000000000000000000000000000000600052601160045260246000fd5b600061103e82610a13565b915061104983610a13565b925082820190508082111561106157611060611004565b5b92915050565b7f4e487b7100000000000000000000000000000000000000000000000000000000600052602260045260246000fd5b600060028204905060018216806110ae57607f821691505b6020821081036110c1576110c0611067565b5b50919050565b60008190508160005260206000209050919050565b60006020601f8301049050919050565b600082821b905092915050565b6000600883026111297fffffffffffffffffffffffffffffffffffffffffffffffffffffffffffffffff826110ec565b61113386836110ec565b95508019841693508086168417925050509392505050565b6000819050919050565b600061117061116b61116684610a13565b61114b565b610a13565b9050919050565b6000819050919050565b61118a83611155565b61119e61119682611177565b8484546110f9565b825550505050565b600090565b6111b36111a6565b6111be818484611181565b505050565b5b818110156111e2576111d76000826111ab565b6001810190506111c4565b5050565b601f821115611227576111f8816110c7565b611201846110dc565b81016020851015611210578190505b61122461121c856110dc565b8301826111c3565b50505b505050565b600082821c905092915050565b600061124a6000198460080261122c565b1980831691505092915050565b60006112638383611239565b9150826002028217905092915050565b61127c82610ad3565b67ffffffffffffffff81111561129557611294610bb9565b5b61129f8254611096565b6112aa8282856111e6565b600060209050601f8311600181146112dd57600084156112cb578287015190505b6112d58582611257565b86555061133d565b601f1984166112eb866110c7565b60005b82811015611313578489015182556001820191506020850194506020810190506112ee565b86831015611330578489015161132c601f891682611239565b8355505b6001600288020188555050505b505050505050565b600061135082610a13565b91507fffffffffffffffffffffffffffffffffffffffffffffffffffffffffffffffff820361138257611381611004565b5b600182019050919050565b600061139882610ab4565b915063ffffffff82036113ae576113ad611004565b5b60018201905091905056fea26469706673582212204a6becb0872baa0dffc0995cf6bc67e5cdc64fed68dd12c801e0bc966d14457e64736f6c63430008180033",
  "linkReferences": {},
  "deployedLinkReferences": {}
}