{
  "_format": "hh-sol-artifact-1",
  "contractName": "MyUser",
  "sourceName": "contracts/MyUser.sol",
  "abi": [
    {
      "inputs": [
        {
          "internalType": "uint256",
          "name": "_user_Id",
          "type": "uint256"
        },
        {
          "internalType": "string",
          "name": "_full_name",
          "type": "string"
        },
        {
          "internalType": "uint32",
          "name": "_country_code",
          "type": "uint32"
        },
        {
          "internalType": "uint256",
          "name": "timestamp",
          "type": "uint256"
        }
      ],
      "name": "addPerson",
      "outputs": [
        {
          "internalType": "string",
          "name": "",
          "type": "string"
        }
      ],
      "stateMutability": "nonpayable",
      "type": "function"
    },
    {
      "inputs": [
        {
          "internalType": "uint256",
          "name": "",
          "type": "uint256"
        }
      ],
      "name": "users",
      "outputs": [
        {
          "internalType": "uint32",
          "name": "user_Id",
          "type": "uint32"
        },
        {
          "internalType": "string",
          "name": "full_name",
          "type": "string"
        },
        {
          "internalType": "uint32",
          "name": "country_code",
          "type": "uint32"
        },
        {
          "internalType": "uint256",
          "name": "timestamp",
          "type": "uint256"
        }
      ],
      "stateMutability": "view",
      "type": "function"
    }
  ],
  "bytecode": "0x608060405234801561001057600080fd5b50610909806100206000396000f3fe608060405234801561001057600080fd5b50600436106100365760003560e01c8063365b98b21461003b5780637f41c4d41461006e575b600080fd5b610055600480360381019061005091906102b8565b61009e565b60405161006594939291906103a3565b60405180910390f35b61008860048036038101906100839190610550565b610176565b60405161009591906105d3565b60405180910390f35b60006020528060005260406000206000915090508060000160009054906101000a900463ffffffff16908060010180546100d790610624565b80601f016020809104026020016040519081016040528092919081815260200182805461010390610624565b80156101505780601f1061012557610100808354040283529160200191610150565b820191906000526020600020905b81548152906001019060200180831161013357829003601f168201915b5050505050908060020160009054906101000a900463ffffffff16908060030154905084565b6060600060405180608001604052808763ffffffff1681526020018681526020018563ffffffff1681526020018481525090508060008088815260200190815260200160002060008201518160000160006101000a81548163ffffffff021916908363ffffffff16021790555060208201518160010190816101f89190610801565b5060408201518160020160006101000a81548163ffffffff021916908363ffffffff160217905550606082015181600301559050506040518060400160405280600f81526020017f57656c636f6d65206e6577557365720000000000000000000000000000000000815250915050949350505050565b6000604051905090565b600080fd5b600080fd5b6000819050919050565b61029581610282565b81146102a057600080fd5b50565b6000813590506102b28161028c565b92915050565b6000602082840312156102ce576102cd610278565b5b60006102dc848285016102a3565b91505092915050565b600063ffffffff82169050919050565b6102fe816102e5565b82525050565b600081519050919050565b600082825260208201905092915050565b60005b8381101561033e578082015181840152602081019050610323565b60008484015250505050565b6000601f19601f8301169050919050565b600061036682610304565b610370818561030f565b9350610380818560208601610320565b6103898161034a565b840191505092915050565b61039d81610282565b82525050565b60006080820190506103b860008301876102f5565b81810360208301526103ca818661035b565b90506103d960408301856102f5565b6103e66060830184610394565b95945050505050565b600080fd5b600080fd5b7f4e487b7100000000000000000000000000000000000000000000000000000000600052604160045260246000fd5b6104318261034a565b810181811067ffffffffffffffff821117156104505761044f6103f9565b5b80604052505050565b600061046361026e565b905061046f8282610428565b919050565b600067ffffffffffffffff82111561048f5761048e6103f9565b5b6104988261034a565b9050602081019050919050565b82818337600083830152505050565b60006104c76104c284610474565b610459565b9050828152602081018484840111156104e3576104e26103f4565b5b6104ee8482856104a5565b509392505050565b600082601f83011261050b5761050a6103ef565b5b813561051b8482602086016104b4565b91505092915050565b61052d816102e5565b811461053857600080fd5b50565b60008135905061054a81610524565b92915050565b6000806000806080858703121561056a57610569610278565b5b6000610578878288016102a3565b945050602085013567ffffffffffffffff8111156105995761059861027d565b5b6105a5878288016104f6565b93505060406105b68782880161053b565b92505060606105c7878288016102a3565b91505092959194509250565b600060208201905081810360008301526105ed818461035b565b905092915050565b7f4e487b7100000000000000000000000000000000000000000000000000000000600052602260045260246000fd5b6000600282049050600182168061063c57607f821691505b60208210810361064f5761064e6105f5565b5b50919050565b60008190508160005260206000209050919050565b60006020601f8301049050919050565b600082821b905092915050565b6000600883026106b77fffffffffffffffffffffffffffffffffffffffffffffffffffffffffffffffff8261067a565b6106c1868361067a565b95508019841693508086168417925050509392505050565b6000819050919050565b60006106fe6106f96106f484610282565b6106d9565b610282565b9050919050565b6000819050919050565b610718836106e3565b61072c61072482610705565b848454610687565b825550505050565b600090565b610741610734565b61074c81848461070f565b505050565b5b8181101561077057610765600082610739565b600181019050610752565b5050565b601f8211156107b55761078681610655565b61078f8461066a565b8101602085101561079e578190505b6107b26107aa8561066a565b830182610751565b50505b505050565b600082821c905092915050565b60006107d8600019846008026107ba565b1980831691505092915050565b60006107f183836107c7565b9150826002028217905092915050565b61080a82610304565b67ffffffffffffffff811115610823576108226103f9565b5b61082d8254610624565b610838828285610774565b600060209050601f83116001811461086b5760008415610859578287015190505b61086385826107e5565b8655506108cb565b601f19841661087986610655565b60005b828110156108a15784890151825560018201915060208501945060208101905061087c565b868310156108be57848901516108ba601f8916826107c7565b8355505b6001600288020188555050505b50505050505056fea2646970667358221220639982e1179c6c2da17efc573453ada81ad1f377a5b5a495abc93c056002238664736f6c63430008180033",
  "linkReferences": {},
  "deployedLinkReferences": {}
}